:100000000C946C000C9494000C9494000C94940048
:100010000C9494000C9494000C9494000C94940010
:100020000C9494000C9494000C9494000C94940000
:100030000C9494000C9494000C9494000C949400F0
:100040000C94BC0F0C9494000C9494000C949400A9
:100050000C9494000C9494000C9494000C949400D0
:100060000C9494000C9494005C084C086C088F0865
:100070007F089F08AF08000000080002010000038D
:100080000407000000000000000001020408102026
:10009000408001020408102001020408102004041A
:1000A0000404040404040202020202020303030320
:1000B00003030000000023002600290000000000C8
:1000C000250028002B0000000000240027002A0043
:1000D0005F022F0D0103B30D11241FBECFEFD8E037
:1000E000DEBFCDBF11E0A0E0B1E0E6E8F9E202C07A
:1000F00005900D92A43DB107D9F723E0A4EDB1E03E
:1001000001C01D92AC33B207E1F710E0C4EDD0E0BE
:1001100004C02297FE010E94FB11C03DD107C9F720
:100120000E94AD0F0C94B6140C940000FC01DB018E
:100130008D919C9111979183808312968D919C91C2
:1001400013979383828314968D919C911597958331
:10015000848316968D919C91179797838683189622
:100160008D919C911997918780871A968D919C917A
:100170001B97938782871C968D919C911D979587DD
:100180008487625F7F4FCF010E960C94B80ECF929A
:10019000DF92EF92FF92CF93DF93CDB7DEB76497F4
:1001A0000FB6F894DEBF0FBECDBF60E087E00E94BF
:1001B0002A1160E086E00E942A1160E08DE00E9432
:1001C0002A110E9455056B017C011092FF011092CB
:1001D000FE0188E090E09093D5018093D40120E067
:1001E00042E060E180E092E00E94D10662E370E0CC
:1001F00089E00E94A21066E071E0CE0101960E94A3
:10020000960046ED51E06AEE71E0CE0101960E9443
:10021000C707CE010F960E941D0EB701A601CE01A1
:1002200001960E944D09BE016F5F7F4F80E092E012
:100230000E940D0ECE0101960E941D0E41E060E06D
:1002400080E092E00E94B706B701A601CE010196B8
:100250000E94EF09BE016F5F7F4F80E092E00E9435
:100260000D0ECE0101960E941D0E64960FB6F894F5
:10027000DEBF0FBECDBFDF91CF91FF90EF90DF903B
:10028000CF900895CF93DF93EC01FB01828193819E
:100290009B838A8385E991E09983888384818C8319
:1002A00085818D8386818E8388E03796DE0117965F
:1002B00001900D928A95E1F7FB0187858F878089F0
:1002C000888B8189898B82898A8B83898B8B4489EE
:1002D0005589668977894C8B5D8B6E8B7F8BDF911F
:1002E000CF910895CF92DF92EF92FF920F931F93D9
:1002F000CF93DF93CDB7DEB7AC970FB6F894DEBFE0
:100300000FBECDBF0E94DA08873069F08D30D1F082
:10031000863051F58091FE019091FF010E94F10815
:10032000082F10E023C06091D4017091D501809115
:10033000FE019091FF010E9411099093D5018093D5
:10034000D40112C080E092E00E94B20780E092E007
:100350000E94B0068091FE019091FF010E94FE086C
:100360009093FF018093FE0100E010E00E943408AA
:100370000E9455056B017C01012BB1F08091D401E5
:100380009091D5018830910579F02091FE0130914E
:10039000FF012115310541F02330310509F06DC011
:1003A0006AEE71E00E943F088091FE019091FF018A
:1003B00082309105F9F083309105A9F1019709F098
:1003C0004FC00091D4011091D50166ED71E0CE01CE
:1003D00049960E94960060E072E0CE0101960E946C
:1003E0004201A801BE01675E7F4FCE0101960E94C7
:1003F000240C31C00091D4011091D50166ED71E05B
:10040000CE0149960E94960060E072E0CE0101960E
:100410000E944201A801BE01675E7F4FCE01019696
:100420000E947D0C18C00091D4011091D5016AEE94
:1004300071E0CE0149960E94960060E072E0CE0124
:1004400001960E944201A801BE01675E7F4FCE0166
:1004500001960E94D60CCE0187960E941D0E20C0E8
:1004600060E072E0CE0101960E944201B701A60150
:10047000CE0101960E94AF0A13C066ED71E00E94A2
:100480003F0866ED71E0CE0101960E949600CE0114
:1004900001960E94C208CE010F960E941D0E84CFC5
:1004A000AC960FB6F894DEBF0FBECDBFDF91CF91F3
:1004B0001F910F91FF90EF90DF90CF900895CF9212
:1004C000EF920F9362E371E084E191E00E948B0E62
:1004D00065E371E086E692E00E948B0E69E371E0CD
:1004E0008CE692E00E948B0E6DE371E082E792E071
:1004F0000E948B0E61E471E088E792E00E948B0E0F
:1005000065E471E08EE792E00E948B0E69E471E091
:1005100084E892E00E948B0E6DE471E08AE892E03C
:100520000E948B0E61E571E080E992E00E948B0EE3
:1005300065E371E088E192E00E948B0E65E571E071
:100540008EE192E00E948B0E69E571E084E292E018
:100550000E948B0E6DE571E08AE292E00E948B0EA4
:1005600061E671E080E392E00E948B0E65E671E047
:1005700086E392E00E948B0E69E671E08CE392E0E4
:100580000E948B0E6DE671E082E492E00E948B0E79
:1005900061E771E088E492E00E948B0E65E771E00C
:1005A0008EE492E00E948B0E69E771E084E592E0B0
:1005B0000E948B0E6DE771E08AE592E00E948B0E3F
:1005C00061E871E080E692E00E948B0E82E0C82E26
:1005D00093E0E92E04E025E04BE06CE080E092E05F
:1005E0000E948C076DE971E088EF91E00E948B0E0C
:1005F0006DE971E084EE91E00F91EF90CF900C9453
:100600008B0ECF93DF9384EE91E00E941D0E88EF56
:1006100091E00E941D0EC6E6D2E02697CE010E9410
:100620001D0E82E0C831D807C1F7C6E9D2E026978F
:10063000CE010E941D0E82E0C636D807C1F784E1C4
:1006400091E0DF91CF910C941D0E6F927F928F926B
:100650009F92AF92BF92CF92DF92EF92FF920F9351
:100660001F93CF93DF93EA012CE3C22ED12CE12C10
:10067000F12CA70196010E94D7116883CA01B90124
:10068000A70196010E94D7116983CA01B90128E127
:1006900030E040E050E00E94D71149015A016A83DE
:1006A000CA01B9016C5F7F4F8F4F9F4F27E030E049
:1006B00040E050E00E94D7116F5F6B8300E010E0D4
:1006C000980140E054E6652E712C60E9C62EDD24C9
:1006D000D394E42FF0E0EE54F84F7F0183E0E8225A
:1006E000FF24E114F10489F4CF01B3010E94C31186
:1006F000892B29F08EE691E0A0E0B0E00AC0CF019E
:10070000B6010E94C311892BA9F38DE691E0A0E008
:10071000B0E0080F191F2A1F3B1FD901C801AA27E3
:10072000BB2788169906AA06BB0610F04F5FD1CFEB
:100730004E83E114F10499F4CF0164E670E00E9465
:10074000C311892B29F08EE691E0A0E0B0E00BC048
:10075000CF0160E971E00E94C311892BA1F38DE6FE
:1007600091E0A0E0B0E0081B190B2A0B3B0B801AAC
:10077000910AA20AB30ACF0164E670E00E94C31195
:100780009C01CF0160E971E00E94C311E5E8F1E04E
:10079000A0E0A13059F4E114F10451F42115310520
:1007A00011F04DE106C00097E1F302C0408101C0A5
:1007B0004CE150E060E070E084169506A606B706AE
:1007C00040F0841A950AA60AB70AAF5F3196AC309A
:1007D00001F7AF5FAD8383948C82DF91CF911F913E
:1007E0000F91FF90EF90DF90CF90BF90AF909F90D0
:1007F0008F907F906F900895CF92DF92EF92FF924B
:100800006B017C018091A6029091A702A091A802A1
:10081000B091A902C816D906EA06FB0671F04AEAA9
:1008200052E0C701B6010E942503C092A602D092F1
:10083000A702E092A802F092A902FF90EF90DF9049
:10084000CF9008950E94FC032091AC0230E081E03B
:100850002C3031050CF480E008950E94220491E0D0
:10086000811190E0892F08950E94FC032091AC0231
:10087000222331F0822F90E02D3020F00C97089544
:100880008CE090E008950E94FC038091AB0290E020
:1008900008950E94FC038091AA0290E008950E94AE
:1008A000FC038091AE0290E008950E94FC038091C9
:1008B000AD0290E008950E94FC038091AF0290E0A9
:1008C00008950E94FC038091B00290E08E54984FEE
:1008D00008956F927F928F929F92AF92BF92CF9224
:1008E000DF92EF92FF920F931F93CF93DF93FC0160
:1008F000C680AC2DB0E020E833E341EE51E00E9429
:100900000E124B015C0122EB37E06D01C4E6D0E032
:1009100000E911E0C901825B97408C159D05DCF46C
:10092000C90183709927892B99F4C901BE010E94DE
:10093000C311892B31F4C901B8010E94C311892B5D
:1009400039F480E8880E81E5981E81E0A81EB11C6C
:100950002F5F3F4FDFCF6580712C8EE4C81A88EF80
:10096000D80AC60164E670E00E94C3118C01C6017A
:1009700060E971E00E94C3117C01C1E0D0E083E036
:10098000C822DD24C615D7052CF5C230D10589F45F
:10099000C114D10471F40115110519F4E114F10425
:1009A00041F480E8880E8BE3981E86E2A81EB11CF5
:1009B0000FC0DE01AC57BE4FAC91B0E020E831E58E
:1009C00041E050E00E940E12860E971EA81EB91E2E
:1009D0002196D8CF4181228130E0A0E1BEE00E9483
:1009E000FF116B017C01242F30E0ACE3B0E00E94EA
:1009F000FF11C60ED71EE81EF91E8081C80ED11C3D
:100A0000E11CF11CA481B0E0119720E831E541E040
:100A100050E00E941912C60ED71EE81EF91EC80C1F
:100A2000D91CEA1CFB1CC701B601DF91CF911F91B5
:100A30000F91FF90EF90DF90CF90BF90AF909F907D
:100A40008F907F906F9008950F931F936093A202F1
:100A50007093A3028093A4029093A50200911A01BF
:100A600010911B0120911C0130911D01060F171FD1
:100A7000281F391F00939A0210939B0220939C0217
:100A800030939D0282E090E09093990280939802C7
:100A90000E94061060939E0270939F028093A002B2
:100AA0009093A1021F910F910895CF92DF92EF9240
:100AB000FF920F931F930E940610C0909E02D09049
:100AC0009F02E090A002F090A1026C197D098E09AE
:100AD0009F090091A2021091A3022091A4023091DB
:100AE000A502683E734081059105D8F00F5F1F4F46
:100AF0002F4F3F4F0093A2021093A3022093A40212
:100B00003093A50248EEC40E43E0D41EE11CF11C54
:100B1000C0929E02D0929F02E092A002F092A102A7
:100B2000CACF80919A0290919B02A0919C02B091B1
:100B30009D02081719072A073B07E8F0E091960283
:100B4000F09197023097B9F009956115710581050B
:100B5000910519F00E9424050EC081E090E02091DB
:100B6000980230919902232B11F480E090E0909349
:100B70009902809398026091A2027091A3028091E1
:100B8000A4029091A5021F910F91FF90EF90DF902A
:100B9000CF900895EF92FF920F9394E6E916F10437
:100BA0002CF092EBE91A97E0F90A03C09EE1E90EF6
:100BB000F11CE092B0020093AF022093AE0280934A
:100BC000AC026093AB024093AA028AEA92E00E94D0
:100BD00069040F91FF90EF900C9424050F931F93DD
:100BE0000091A2021091A3022091A4023091A502CB
:100BF000060F171F281F391F0093A2021093A3028C
:100C00002093A4023093A5021F910F910895CF93D2
:100C1000DF93EC0160E08E810E94631181E090E03F
:100C20000E945D1061E08E810E94631181E090E07E
:100C30000E945D1060E08E810E94631184E690E066
:100C4000DF91CF910C945D10CF92DF92EF92FF92E3
:100C50000F931F93CF93DF937C01C0E0D0E0C62EAB
:100C6000D12C87010C0F1D1F61E0F80187810E94C4
:100C70002A11B6010C2E02C0759567950A94E2F709
:100C80006170F80187810E9463112196C430D105FB
:100C900041F7C701DF91CF911F910F91FF90EF9026
:100CA000DF90CF900C940706CF92DF92EF92FF92E5
:100CB0000F931F93CF93DF937C01C0E0D0E0C62E4B
:100CC000D12C87010C0F1D1F61E0F80187810E9464
:100CD0002A11B6010C2E02C0759567950A94E2F7A9
:100CE0006170F80187810E9463112196C830D10597
:100CF00041F7C701DF91CF911F910F91FF90EF90C6
:100D0000DF90CF900C9407061F93CF93DF93EC01F5
:100D1000162F642F8C810E9463118D818F3F19F0F3
:100D200060E00E9463118F85612F84FF06C0CE01B1
:100D3000DF91CF911F910C94540670E084E075957B
:100D400067958A95E1F7CE010E942406612FCE01B6
:100D5000DF91CF911F910C94240640E00C948406FF
:100D600061E00E94AD0680ED97E00C945D10443088
:100D700008F043E0FC012389421710F04FEF420FC7
:100D8000FC01E40FF11D2489260F2068622F0C94CA
:100D9000AD06FC016089262F2460208B6C600C94CA
:100DA000AD06CF93DF93EC01423018F08F85886059
:100DB0008F874B8B1C8A80E48D8B6E8B70E0605C20
:100DC0007F4F6F8B222329F0413019F48F85846087
:100DD0008F8780E593EC0E945D1060E08C810E941B
:100DE000631160E08E810E9463118D818F3F19F045
:100DF00060E00E9463116F8564FD1DC063E0CE0159
:100E00000E94240684E991E10E945D1063E0CE0116
:100E10000E94240684E991E10E945D1063E0CE0106
:100E20000E94240686E990E00E945D1062E0CE01F7
:100E30000E94240616C06062CE010E94AD0684E9BD
:100E400091E10E945D106F856062CE010E94AD0647
:100E500086E990E00E945D106F856062CE010E947D
:100E6000AD066F856062CE010E94AD0684E0888B7E
:100E7000CE010E94C906CE010E94B00682E0898B95
:100E800066E0CE01DF91CF910C94AD066F927F9218
:100E90008F92AF92CF92EF920F931F93CF93DF93E6
:100EA000CDB7DEB73C01162F842F5D854E853F857B
:100EB0009889F301848325830683E782C086A1860F
:100EC0008286538744873587968761E00E942A117E
:100ED000F30185818F3F19F061E00E942A1161E0E2
:100EE000F30186810E942A11112319F0F30117865C
:100EF00003C080E1F301878720E041E060E1C301A6
:100F0000DF91CF911F910F91EF90CF90AF908F9085
:100F10007F906F900C94D1068F92AF92CF92EF9208
:100F20000F93DC0113961C921E921297E5E9F1E0F3
:100F3000ED93FC931F921F921F921F928C2CAE2C4C
:100F4000C02EE22E042F2FEF462F61E00E944607AD
:100F50000F900F900F900F900F91EF90CF90AF9058
:100F60008F900895FC0160896E7F608B68600C949F
:100F7000AD06FC016089262F2160208B69600C94EE
:100F8000AD0641E00E94840681E090E00895AF92B2
:100F9000BF92CF92DF92EF92FF920F931F93CF9366
:100FA000DF936C015B01EA01FC01E484F5840285B6
:100FB00013852085318540815181628173818481CF
:100FC00095810E94CA058CE090E0F50195838483A9
:100FD0008EE190E0938382838501025F1F4F62E37D
:100FE00071E0C8010E94C10EF50180819181998351
:100FF0008883828193819B838A83848195819D8369
:101000008C83868197819F838E8380859185998744
:101010008887828593859B878A87848595859D8728
:101020008C87B801CE010E960E94A10E0E94550534
:101030000E9455049F838E83F60180859185998750
:101040008887828593859B878A87848595859D87F8
:101050008C87DF91CF911F910F91FF90EF90DF90E0
:10106000CF90BF90AF9008956DE770E080E090E082
:101070000E94351060E070E0CB010C94EE05CF9338
:10108000DF93DB0101978730910508F078C08C5C15
:101090009F4FFC010C94F91114968D919C9115971A
:1010A0008831910514F4019602C081E090E0159614
:1010B0009C938E93149763C012968D919C91139775
:1010C0008B33910514F4019602C081E090E01396F1
:1010D0009C938E93129753C0EB012E9662E371E0BE
:1010E000CE010E948D0F882319F069E971E002C0DA
:1010F00062E371E0CE01DF91CF910C94C10E1696A0
:101100008D919C9117978730910514F4019602C038
:1011100081E090E017969C938E93169730C01896B6
:101120008D919C9119978F31910514F4019602C00D
:1011300081E090E019969C938E93189720C01A96A0
:101140008D919C911B978C30910514F4019602C0EF
:1011500081E090E01B969C938E931A9710C01C968A
:101160008D919C911D97843EF7E09F0714F40196A2
:1011700002C08FED97E01D969C938E931C97DF9194
:10118000CF910895EF92FF920F931F93FC01E48497
:10119000F5840285138520853185408151816281E6
:1011A0007381848195810E94CA051F910F91FF90E0
:1011B000EF90089586E00E949911892B61F487E0F1
:1011C0000E949911892B49F48DE00E949911892B75
:1011D00031F480E0089586E0089587E008958DE079
:1011E00008959C012D7F2130310529F021E00297DF
:1011F00019F020E001C021E0822F0895009741F00E
:101200008130910541F0029749F483E090E0089520
:1012100081E090E0089582E090E0089580E090E021
:1012200008958230910591F08330910511F0019776
:10123000E1F468307105E1F062307105E1F0613090
:101240007105E1F06330710581F412C068307105F9
:10125000C1F065307105C1F066307105C1F06430D0
:101260007105C1F06730710561F088E090E0089584
:1012700082E090E0089581E090E0089583E090E0BE
:10128000089585E090E0089586E090E0089584E078
:1012900090E0089587E090E00895AF92BF92CF92DA
:1012A000DF92EF92FF920F931F93CF93DF93CDB70F
:1012B000DEB768970FB6F894DEBF0FBECDBF8C01C6
:1012C0006A017B01CB01BA010E94550426E0B22ECF
:1012D000B89EB001B99E700D112461507D4FCE01B2
:1012E00043960E94B80EC701B6010E945B04B89EE7
:1012F000B001B99E700D11246F547D4FCE010D9633
:101300000E94B80EC701B6010E944F045C01C701DC
:10131000B6010E9461047C016DE971E0CE0107967F
:101320000E948B0E8AE0A816B1042CF460E3CE0173
:1013300007960E94480FB501CE0107960E945B0FE9
:101340004AE0B701CE0101960E94D90EBE016D5E42
:101350007F4FC8010E94B80E6CE971E0C8010E947D
:10136000380FBE01635F7F4FC8010E94310F6CE9E7
:1013700071E0C8010E94380FBE01695F7F4FC8014C
:101380000E94310F6CE971E0C8010E94380FBE0164
:101390006F5F7F4FC8010E94310FCE0101960E94FE
:1013A0001D0ECE0107960E941D0ECE010D960E94C5
:1013B0001D0ECE0143960E941D0EC80168960FB601
:1013C000F894DEBF0FBECDBFDF91CF911F910F917B
:1013D000FF90EF90DF90CF90BF90AF9008954F9225
:1013E0005F926F927F92AF92BF92CF92DF92EF9215
:1013F000FF920F931F93CF93DF93CDB7DEB768971C
:101400000FB6F894DEBF0FBECDBF8C012A013B01A1
:10141000CB01BA010E9434045C01C301B2010E94F5
:1014200043046C01C301B2010E9449047C016DE9CF
:1014300071E0CE0143960E948B0E8AE0A816B1049B
:101440002CF460E3CE0143960E94480FB501CE0113
:1014500043960E945B0F6DE971E0CE010D960E94EC
:101460008B0E8AE0C816D1042CF460E3CE010D96F1
:101470000E94480FB601CE010D960E945B0F6DE9E8
:1014800071E0CE0107960E948B0E8AE0E816F10407
:101490002CF460E3CE0107960E94480FB701CE01FD
:1014A00007960E945B0FC301B2010E942D0488239E
:1014B00019F069E971E002C062E371E0CE010196C2
:1014C0000E948B0EBE016D5E7F4FC8010E94B80E58
:1014D0006EE971E0C8010E94380FBE01635F7F4F63
:1014E000C8010E94310F6EE971E0C8010E94380FF7
:1014F000BE01695F7F4FC8010E94310F6CE971E046
:10150000C8010E94380FBE016F5F7F4FC8010E9463
:10151000310FCE0101960E941D0ECE0107960E944A
:101520001D0ECE010D960E941D0ECE0143960E9407
:101530001D0EC80168960FB6F894DEBF0FBECDBF72
:10154000DF91CF911F910F91FF90EF90DF90CF909F
:10155000BF90AF907F906F905F904F900895CF9223
:10156000DF92EF92FF920F931F93CF93DF9300D000
:1015700000D000D0CDB7DEB78C016A017B0140E01E
:1015800060E00E94B706B701A601CE0101960E9455
:101590004D09BE016F5F7F4FC8010E940D0ECE0145
:1015A00001960E941D0E41E060E0C8010E94B7064E
:1015B000B701A601CE0101960E94EF09BE016F5F3F
:1015C0007F4FC8010E940D0ECE0101960E941D0E94
:1015D00026960FB6F894DEBF0FBECDBFDF91CF9138
:1015E0001F910F91FF90EF90DF90CF900895DF92C1
:1015F000EF92FF920F931F93CF93DF93CDB7DEB798
:1016000068970FB6F894DEBF0FBECDBF8C017B018B
:10161000FB018681978136E0D32ED89EB001D99EFA
:10162000700D112461507D4FCE0143960E94B80E7B
:10163000F70182859385D89EB001D99E700D112443
:101640006F547D4FCE010D960E94B80E6DE971E08A
:10165000CE0107960E948B0EF701808591850A972F
:101660002CF460E3CE0107960E94480FF7016085D5
:101670007185CE0107960E945B0FF7016485758521
:101680004AE0CE0101960E94D90EBE016D5E7F4FE9
:10169000C8010E94B80E6CE971E0C8010E94380FC1
:1016A000BE01635F7F4FC8010E94310F6CE971E09A
:1016B000C8010E94380FBE01695F7F4FC8010E94B8
:1016C000310F6CE971E0C8010E94380FBE016F5FF5
:1016D0007F4FC8010E94310FCE0101960E941D0E5E
:1016E000CE0107960E941D0ECE010D960E941D0E82
:1016F000CE0143960E941D0EC80168960FB6F8945D
:10170000DEBF0FBECDBFDF91CF911F910F91FF9034
:10171000EF90DF900895AF92BF92CF92DF92EF9259
:10172000FF920F931F93CF93DF93CDB7DEB76297EE
:101730000FB6F894DEBF0FBECDBF8C016B01FB016D
:10174000E480F580FDE0EF16F1041CF08CE0E81A6F
:10175000F108F601A280B3806DE971E0CE010D962B
:101760000E948B0EFAE0EF16F1042CF460E3CE0138
:101770000D960E94480FB701CE010D960E945B0F97
:101780006DE971E0CE0107960E948B0E8AE0A816E3
:10179000B1042CF460E3CE0107960E94480FB50116
:1017A000CE0107960E945B0FB601625F7F4FCE01AC
:1017B00001960E94B80EBE01635F7F4FC8010E9470
:1017C000B80E6EE971E0C8010E94380FBE01695F72
:1017D0007F4FC8010E94310F6CE971E0C8010E947F
:1017E000380FBE016F5F7F4FC8010E94310FCE01DD
:1017F00001960E941D0ECE0107960E941D0ECE017D
:101800000D960E941D0EC80162960FB6F894DEBFB9
:101810000FBECDBFDF91CF911F910F91FF90EF9041
:10182000DF90CF90BF90AF900895019787309105DA
:1018300040F4FC01E353FE4F8081992787FD90958A
:10184000089580E090E00895CF92DF92EF92FF92AA
:101850000F931F93CF93DF93CDB7DEB76A970FB681
:10186000F894DEBF0FBECDBF8C016B017A0140E062
:1018700060E00E94B70660EA71E0C8010E941B0E9A
:1018800041E060E0C8010E94B706B601CE010196B2
:101890000E949600BE016F5F7F4FCE0145960E9469
:1018A0008B0BBE016B5E7F4FC8010E940D0ECE01F7
:1018B00045960E941D0ECE010F960E941D0E88E0D7
:1018C000E816F10459F0C7010E94150C41E0682F99
:1018D000C8010E94B706C8010E94B9076A960FB6F0
:1018E000F894DEBF0FBECDBFDF91CF911F910F9156
:1018F000FF90EF90DF90CF900895CF92DF92EF921C
:10190000FF920F931F93CF93DF93CDB7DEB76A9704
:101910000FB6F894DEBF0FBECDBF8C016B017A010C
:1019200040E060E00E94B7066FEA71E0C8010E94E3
:101930001B0E41E060E0C8010E94B706B601CE016F
:1019400001960E949600BE016F5F7F4FCE014596C3
:101950000E94F70ABE016B5E7F4FC8010E940D0E08
:10196000CE0145960E941D0ECE010F960E941D0EBF
:1019700088E0E816F10459F0C7010E94150C41E017
:10198000682FC8010E94B706C8010E94B9076A966D
:101990000FB6F894DEBF0FBECDBFDF91CF911F9180
:1019A0000F91FF90EF90DF90CF900895CF92DF924C
:1019B000EF92FF920F931F93CF93DF93CDB7DEB7D4
:1019C0006A970FB6F894DEBF0FBECDBF8C016B01D6
:1019D0007A0140E060E00E94B7066EEB71E0C8015A
:1019E0000E941B0E41E060E0C8010E94B706B601EC
:1019F000CE0101960E949600BE016F5F7F4FCE011F
:101A000045960E948B0BBE016B5E7F4FC8010E9402
:101A10000D0ECE0145960E941D0ECE010F960E941E
:101A20001D0E88E0E816F10459F0C7010E94150C5C
:101A300041E0682FC8010E94B706C8010E94B9079B
:101A40006A960FB6F894DEBF0FBECDBFDF91CF917F
:101A50001F910F91FF90EF90DF90CF90089562E378
:101A600071E08CE291E00E948B0E65E371E08FEFF4
:101A700092E00E948B0E69E371E085E093E00E94A2
:101A80008B0E6DE371E08BE093E00E948B0E61E4BE
:101A900071E081E193E00E948B0E65E471E087E1E3
:101AA00093E00E948B0E69E471E08DE193E00E9467
:101AB0008B0E6DE471E083E293E00E948B0E61E592
:101AC00071E089E293E00E948B0E65E371E081EBA7
:101AD00092E00E948B0E65E571E087EB92E00E9438
:101AE0008B0E69E571E08DEB92E00E948B0E6DE547
:101AF00071E083EC92E00E948B0E61E671E089EC6C
:101B000092E00E948B0E65E671E08FEC92E00E94FD
:101B10008B0E69E671E085ED92E00E948B0E6DE61A
:101B200071E08BED92E00E948B0E61E771E081EE37
:101B300092E00E948B0E65E771E087EE92E00E94D2
:101B40008B0E69E771E08DEE92E00E948B0E6DE7DF
:101B500071E083EF92E00E948B0E61E871E089EF03
:101B600092E00C948B0ECF93DF93CFEFD2E02697C9
:101B7000CE010E941D0E82E0C13BD807C1F7CFE223
:101B8000D3E02697CE010E941D0E82E0CF3FD807FA
:101B9000C1F78CE291E0DF91CF910C941D0ECF92B2
:101BA000DF92EF92FF920F931F93CF93DF936C011D
:101BB0007A01EB01E60EF71E00E010E0CE15DF051E
:101BC00061F06991D601ED91FC910190F081E02DD9
:101BD000C6010995080F191FF1CFC801DF91CF91F8
:101BE0001F910F91FF90EF90DF90CF9008956115B6
:101BF000710581F0DB010D900020E9F7AD01415046
:101C00005109461B570BDC01ED91FC910280F381D9
:101C1000E02D099480E090E00895DC01ED91FC91C5
:101C2000DB0114964D915C9115976D917C9102802A
:101C3000F381E02D09940C94F70DFC0180819181D2
:101C40000C94CD12CF93DF93EC018881998100979A
:101C500011F00E94CD12198218821D821C821B82F3
:101C60001A82DF91CF9108950F931F93CF93DF9343
:101C7000EC018B016F5F7F4F888199810E945C131B
:101C8000009731F0998388831B830A8381E001C028
:101C900080E0DF91CF911F910F910895CF93DF9353
:101CA000EC0188819981892B29F08A819B81861793
:101CB000970760F4CE010E94340E882341F08C8196
:101CC0009D81892B19F4E881F981108281E0DF91EF
:101CD000CF910895EF92FF920F931F93CF93DF93CD
:101CE000EC017B018A01BA010E944E0E811104C0F1
:101CF000CE010E94220E07C01D830C83B70188818C
:101D000099810E943814CE01DF91CF911F910F91DC
:101D1000FF90EF900895FC011182108213821282CD
:101D2000158214826115710559F0FB0101900020A4
:101D3000E9F7AF0141505109461B570B0C946A0E4D
:101D40000895CF93DF93EC01FB018617970761F0AD
:101D5000608171816115710529F0448155810E946E
:101D60006A0E02C00E94220ECE01DF91CF9108952B
:101D7000FC011182108213821282158214820C944B
:101D8000A10ECF93DF93EC016115710561F0FB01AA
:101D900001900020E9F7AF0141505109461B570B54
:101DA0000E946A0E02C00E94220ECE01DF91CF91E6
:101DB00008950F931F93CF93DF93CDB7DEB762974C
:101DC0000FB6F894DEBF0FBECDBF8C01CB01F8017A
:101DD00011821082138212821582148250E0BE0199
:101DE0006F5F7F4F0E943F14BE016F5F7F4FC8013E
:101DF0000E94C10E62960FB6F894DEBF0FBECDBF33
:101E0000DF91CF911F910F910895EF92FF920F9361
:101E10001F93CF93DF93EC017B010C811D81611532
:101E2000710511F480E016C04115510591F0040FC1
:101E3000151FB8010E944E0E8823A1F32881398115
:101E40008C819D81B701820F931F0E9438141D83DE
:101E50000C8381E0DF91CF911F910F91FF90EF9064
:101E60000895FB0144815581608171810C94050FB7
:101E70006115710559F0FB0101900020E9F7AF01F0
:101E800041505109461B570B0C94050F80E00895F3
:101E9000CF93DF9300D0CDB7DEB769831A8241E0DC
:101EA00050E0BE016F5F7F4F0E94050F0F900F90B3
:101EB000DF91CF910895EF92FF920F931F93CF93ED
:101EC000DF93CDB7DEB728970FB6F894DEBF0FBE0D
:101ED000CDBF7C01CB014AE050E08E010F5F1F4F68
:101EE000B8010E943F14F80101900020E9F7AF010A
:101EF00041505109401B510BB801C7010E94050F09
:101F000028960FB6F894DEBF0FBECDBFDF91CF91FC
:101F10001F910F91FF90EF900895FC01248135816E
:101F2000232B31F421E061157105A1F0FB0108C0FC
:101F3000FC01808191816115710531F421E0FC0182
:101F40008081882339F005C00E942F1421E0892B5D
:101F500009F020E0822F089508950E9467100E94E2
:101F6000AC0F0E94C700C0E0D0E00E947201209731
:101F7000E1F30E940000F9CF1F920F920FB60F926B
:101F800011242F933F938F939F93AF93BF9380918F
:101F9000300390913103A0913203B091330330911B
:101FA0002F0323E0230F2D3720F40196A11DB11D2F
:101FB00005C026E8230F0296A11DB11D20932F0313
:101FC0008093300390933103A0933203B093330393
:101FD0008091340390913503A0913603B09137037B
:101FE0000196A11DB11D8093340390933503A093F6
:101FF0003603B0933703BF91AF919F918F913F917B
:102000002F910F900FBE0F901F9018952FB7F89437
:1020100060913003709131038091320390913303CA
:102020002FBF08953FB7F894809134039091350302
:10203000A0913603B091370326B5A89B05C02F3F6A
:1020400019F00196A11DB11D3FBF6627782F892F7A
:102050009A2F620F711D811D911D42E0660F771F3F
:10206000881F991F4A95D1F70895CF92DF92EF927A
:10207000FF92CF93DF936B017C010E941210EB0162
:10208000C114D104E104F10489F00E94C2110E943C
:1020900012106C1B7D0B683E734090F381E0C81AF0
:1020A000D108E108F108C851DC4FEACFDF91CF91A8
:1020B000FF90EF90DF90CF900895019739F0880F4F
:1020C000991F880F991F02970197F1F70895789447
:1020D00084B5826084BD84B5816084BD85B582602D
:1020E00085BD85B5816085BDEEE6F0E080818160CB
:1020F0008083E1E8F0E010828081826080838081CB
:1021000081608083E0E8F0E0808181608083E1EBA2
:10211000F0E0808184608083E0EBF0E0808181608A
:102120008083EAE7F0E08081846080838081826040
:102130008083808181608083808180688083109229
:10214000C10008951F93CF93DF93182FEB0161E037
:102150000E942A11209711F460E004C0CF3FD105FE
:1021600039F461E0812FDF91CF911F910C946311BD
:10217000E12FF0E0EA58FF4FE491E330F9F048F442
:10218000E130B9F0E230A1F584B5806284BDC8BD0C
:1021900034C0E730E9F0E83019F1E43049F58091D6
:1021A0008000806280938000D0938B00C0938A006F
:1021B00024C084B5806884BDC7BD1FC080918000E5
:1021C000806880938000D0938900C093880015C0F8
:1021D0008091B00080688093B000C093B3000DC0C0
:1021E0008091B00080628093B000C093B40005C0BD
:1021F000C038D1050CF0B5CFAFCFDF91CF911F9193
:102200000895833081F028F4813099F08230A1F074
:1022100008958730A9F08830B9F08430D1F48091E6
:1022200080008F7D03C0809180008F778093800035
:10223000089584B58F7702C084B58F7D84BD0895DD
:102240008091B0008F7703C08091B0008F7D809324
:10225000B0000895CF93DF9390E0FC01E657FF4F65
:102260002491FC01E256FF4F8491882349F190E0CC
:10227000880F991FFC01EA53FF4FA591B491845434
:102280009F4FFC01C591D4919FB7611108C0F8948C
:102290008C91209582238C93888182230AC062309E
:1022A00051F4F8948C91322F309583238C9388814C
:1022B000822B888304C0F8948C91822B8C939FBFCF
:1022C000DF91CF9108950F931F93CF93DF931F92C8
:1022D000CDB7DEB7282F30E0F901EA58FF4F8491DF
:1022E000F901E657FF4F1491F901E256FF4F0491AF
:1022F0000023C9F0882321F069830E9401116981BC
:10230000E02FF0E0EE0FFF1FE454FF4FA591B491D2
:102310009FB7F8948C91611103C01095812301C07F
:10232000812B8C939FBF0F90DF91CF911F910F91C5
:102330000895CF93DF93282F30E0F901EA58FF4F3B
:102340008491F901E657FF4FD491F901E256FF4F0E
:10235000C491CC2391F081110E940111EC2FF0E087
:10236000EE0FFF1FEE54FF4FA591B4912C912D233A
:1023700081E090E021F480E002C080E090E0DF9115
:10238000CF910895089597FB072E16F4009407D077
:1023900077FD09D00E94211207FC05D03EF49095EC
:1023A00081959F4F0895709561957F4F0895A1E2A3
:1023B0001A2EAA1BBB1BFD010DC0AA1FBB1FEE1FBF
:1023C000FF1FA217B307E407F50720F0A21BB30B0A
:1023D000E40BF50B661F771F881F991F1A9469F786
:1023E00060957095809590959B01AC01BD01CF01E2
:1023F0000895EE0FFF1F0590F491E02D0994A29F20
:10240000B001B39FC001A39F700D811D1124911DC8
:10241000B29F700D811D1124911D08950E94FF111E
:10242000A59F900DB49F900DA49F800D911D112428
:102430000895B7FF0C940E120E940E12821B930B8C
:102440000895AA1BBB1B51E107C0AA1FBB1FA617FB
:10245000B70710F0A61BB70B881F991F5A95A9F74D
:1024600080959095BC01CD010895CF93DF93823084
:10247000910510F482E090E0E0913A03F0913B0383
:1024800020E030E0A0E0B0E0309739F140815181A8
:1024900048175907B8F04817590771F4828193819A
:1024A000109729F013969C938E9312972CC09093BB
:1024B0003B0380933A0327C02115310531F04217C1
:1024C000530718F0A901DB0101C0EF019A01BD011A
:1024D000DF010280F381E02DD7CF21153105F9F01E
:1024E000281B390B2430310580F48A819B816115CA
:1024F000710521F0FB019383828304C090933B0319
:1025000080933A03FE01329644C0FE01E20FF31FAE
:102510008193919322503109398328833AC02091C5
:10252000380330913903232B41F42091020130917B
:102530000301309339032093380320910001309137
:1025400001012115310541F42DB73EB74091040139
:1025500050910501241B350BE0913803F0913903AC
:10256000E217F307A0F42E1B3F0B2817390778F06A
:10257000AC014E5F5F4F2417350748F04E0F5F1FC9
:1025800050933903409338038193919302C0E0E064
:10259000F0E0CF01DF91CF910895CF93DF930097C3
:1025A00009F487C0FC01329713821282C0913A036A
:1025B000D0913B03209781F420813181280F391F6E
:1025C00080913803909139038217930779F5F0933E
:1025D0003903E09338036DC0DE0120E030E0AE1730
:1025E000BF0750F412964D915C9113979D014115D0
:1025F000510509F1DA01F3CFB383A2834081518100
:10260000840F951F8A179B0771F48D919C911197E8
:10261000840F951F02969183808312968D919C91D1
:102620001397938382832115310529F4F0933B039B
:10263000E0933A033EC0D9011396FC93EE931297B0
:102640004D915D91A40FB51FEA17FB0779F48081C6
:102650009181840F951F0296D90111969C938E93B8
:102660008281938113969C938E931297E0E0F0E021
:102670008A819B81009719F0FE01EC01F9CFCE0110
:10268000029628813981820F931F2091380330915F
:1026900039032817390769F4309729F410923B035E
:1026A00010923A0302C013821282D0933903C0936E
:1026B0003803DF91CF910895A0E0B0E0E2E6F3E1C6
:1026C0000C948314EC01CB01209719F40E9435126D
:1026D000B8C0FE01E60FF71F9E0122503109E21734
:1026E000F30708F4ACC0D9010D911C91119706179E
:1026F0001707B8F00530110508F49FC0A801445031
:1027000051094617570708F498C002501109061BD3
:10271000170B019311936D937C93CF010E94CD12FF
:102720008CC05B01A01AB10A4E01800E911EA091CF
:102730003A03B0913B03612C712C60E070E010977C
:1027400009F449C0A815B905C9F5ED90FC90119799
:10275000670142E0C40ED11CCA14DB0478F14701C2
:102760008A189B08640142E0C40ED11C1296BC90EA
:1027700012971396AC91B5E0CB16D10440F0B2821B
:10278000A38391828082D9018D939C9309C00E5FAF
:102790001F4F0E0D1F1DF90111830083EB2DFA2F22
:1027A0006115710531F0DB011396FC93EE931297DE
:1027B00044C0F0933B03E0933A033FC06D917C919A
:1027C00011976616770608F43B01BD0112960D902D
:1027D000BC91A02DB4CF6091380370913903681576
:1027E0007905E9F468167906D0F44091000150911A
:1027F00001014115510541F44DB75EB760910401E7
:1028000070910501461B570BE417F507C0F4F093D0
:102810003903E0933803F901918380830EC00E944D
:1028200035127C01009759F0A801BE010E942614C0
:10283000CE010E94CD12C70104C0CE0102C080E0CB
:1028400090E0CDB7DEB7EEE00C949F14FB01DC0105
:1028500002C001900D9241505040D8F70895FB01FD
:10286000DC018D91019080190110D9F3990B089525
:10287000FB01DC0101900D920020E1F70895453243
:10288000510520F4423010F00C944A14FB011082E0
:10289000CB010895BB274A3031F4992322F4BDE2DD
:1028A000909581959F4F0C945614BB27FB0155279B
:1028B000AA27880F991FAA1FA41710F0A41B83959D
:1028C0005051B9F7A05DAA3308F0A95DA193009714
:1028D00079F7B111B1931192CB010C946F14DC0113
:1028E000FC01672F71917723E1F7329704C07C9147
:1028F0006D9370836291AE17BF07C8F308952F924E
:102900003F924F925F926F927F928F929F92AF927F
:10291000BF92CF92DF92EF92FF920F931F93CF93CC
:10292000DF93CDB7DEB7CA1BDB0B0FB6F894DEBF63
:102930000FBECDBF09942A88398848885F846E8489
:102940007D848C849B84AA84B984C884DF80EE80D3
:10295000FD800C811B81AA81B981CE0FD11D0FB6DC
:10296000F894DEBF0FBECDBFED01089510E0C4EDB9
:10297000D0E004C0FE010E94FB112296C83DD107A1
:06298000C9F7F894FFCF37
:1029860000003C0380000000240012000100160035
:102996000200DF070000000000002C01000000001C
:1029A60024001200010016000200DF0700000000EC
:1029B6000000504D006572720053756E004D6F6ECB
:1029C6000054756500576564005468750046726961
:1029D60000536174004A616E00466562004D617283
:1029E60000417072004D6179004A756E004A756C3F
:1029F6000041756700536570004F6374004E6F7633
:102A060000446563001F1C1F1E1F1E1F1F1E1F1E66
:102A16001F00000000C107CF0D414D0020003A0005
:102A260053657420636C6F636B2074696D65005326
:102A3600657420636C6F636B206461746500536515
:102A46007420616C61726D2074696D650003000607
:042A56000800040B65
:00000001FF
